:020000040800F2
:100000005806002001010008550D0008130D0008D6
:10001000510D0008B906000877160008000000001E
:100020000000000000000000000000006112000855
:10003000E907000800000000F1100008D5130008CF
:100040001B0100081B0100081B0100081B01000820
:100050001B0100081B0100081B0100081B01000810
:100060001B0100081B0100081B0100081B01000800
:100070001B0100081B0100081B0100081B010008F0
:100080001B0100081B0100081B0100081B010008E0
:100090001B0100081B0100081B0100081B010008D0
:1000A0001B0100081B0100081B0100081B010008C0
:1000B000391400081B0100081B0100081B0100087F
:1000C0001B0100081B0100081B0100081B010008A0
:1000D0001B0100081B010008A51400081B010008F3
:1000E0001B0100081B0100081B010008DFF80CD0F1
:1000F00000F042FA00480047392000085806002066
:100100000648804706480047FEE7FEE7FEE7FEE7B1
:10011000FEE7FEE7FEE7FEE7FEE7FEE7D91300088D
:10012000ED000008D2B201E000F8012B491EFBD21D
:1001300070470022F6E710B513460A4604461946F2
:10014000FFF7F0FF204610BD30B505462A460B46A6
:1001500012F8010B13F8014B08B1A042F8D01CB102
:10016000002802D06D1CF1E7284630BD421C10F873
:10017000011B0029FBD1801A704730B50B460146A0
:1001800000202022012409E021FA02F59D4205D336
:1001900003FA02F5491B04FA02F52844151EA2F1E0
:1001A0000102F1DC30BD2DE9F05F054600209246EA
:1001B0009B4688460646814640241BE02846414629
:1001C0004746224600F0F9F953465A46C01A914173
:1001D00010D311461846224600F0E0F92D1A67EBBD
:1001E00001084F4622460120002100F0D7F917EB05
:1001F00000094E41201EA4F10104DFDC48463146CF
:100200002A464346BDE8F09F2DE9FE4F804681EA2D
:100210000300C00F0C46009021F0004123F0004580
:10022000B8EB0200A94105D24046214690461C4643
:100230000B46024623F00040104347D0270DC7F37A
:100240000A00C3F30A510290401A019040286BDA69
:10025000C3F3130040F4801B0098924620B10023A2
:10026000D2EB030A63EB0B0B01985946C0F1400235
:10027000504600F093F906460D4650465946019AFD
:1002800000F0ABF910EB08006141002487EA11523D
:1002900084EAE7731A4340D0009A62B3019A012AB4
:1002A0004FEA075215DC001B61EB02014FF00042E0
:1002B00002EA0752CDE90042001C41F580113246A6
:1002C0002B4600F0ABF903B0BDE8F08F4046214665
:1002D000F9E7001B61EB0201001C41F580130018D7
:1002E0005B412018A2F5001747EB030140EAD570E7
:1002F000B6196D4111E06D084FEA360645EAC07542
:100300004FEA0752001B61EB0201001C41F580110E
:1003100049084FEA30000019514132462B4603B0DC
:10032000BDE8F04F00F06BB90098012240000023B7
:10033000D0EB020263EBE073009821464FEAE074D1
:10034000B8EB000061EB0401E9E783F000435BE7F1
:1003500081F0004158E72DE9FE4F81EA030404F0E3
:10036000004421F0004100944FF0000B23F00043C3
:1003700050EA01045ED052EA03045BD0C3F30A548E
:10038000C1F30A552C44A4F2F3340194A0FB0254A7
:10039000C1F3130141F48011C3F3130343F4801339
:1003A00001FB024400FB034E840A970A44EA81548D
:1003B00047EA8357A4FB076802958D0A05FB07856A
:1003C0004FEA932C04FB0C542705029D4FEA065874
:1003D00047EA1637B5EB08056EEB070C870E920E51
:1003E00047EA811742EA8312A7FB0201B6EB0B0131
:1003F00064EB00042B0D43EA0C335E1844EB1C50F5
:10040000DA465146E7FB0201C5F313044FEA0B330A
:1004100043EA14534FEA0432019C43EA0603A4F171
:100420000C040294009CCDE900B400F0F7F803B08E
:10043000BDE8F08F00200146F9E72DE9F04D81EA93
:10044000030404F0004B21F0004514464FF0000A6D
:1004500023F0004150EA050220D054EA01021DD0E9
:10046000C5F30A570246C5F31303C1F31300C1F3E2
:100470000A5640F4801543F48013A7EB0608101BBE
:10048000D64608F2FD3873EB050002D308F10108E7
:1004900001E092185B41B8F1000F03DA0020014639
:1004A000BDE8F08D00204FF48011064684460EE032
:1004B000171B73EB050705D3121B63EB05030643FC
:1004C0004CEA010C49084FEA300092185B4150EAAF
:1004D0000107EDD152EA030012D082EA040083EA58
:1004E0000501084305D0101BAB4106D201220023B1
:1004F00006E000224FF0004302E06FF001025310CB
:100500001AEB06004CEB085110EB0A0041EB0B0113
:10051000BDE8F04D00F073B8C1F30A52C1F3130106
:1005200040F2FF3341F480119A4202DA0020014682
:10053000704740F233439A42A2F2334202DC524205
:1005400000F03BB800F02AB830B5041E71F1000489
:1005500004DB4FF00044404264EB0101141E73F1D0
:10056000000405DB1C464FF00043524263EB0403DA
:10057000994208BF904230BD064C074D06E0E06846
:1005800040F0010394E8070098471034AC42F6D3DA
:10059000FFF7B0FDAC290008CC290008202A04DBB5
:1005A000203A00FA02F1002070479140C2F1200386
:1005B00020FA03F3194390407047202A04DB203AC5
:1005C00021FA02F00021704721FA02F3D040C2F173
:1005D00020029140084319467047202A06DBCB17BA
:1005E000203A41FA02F043EAE07306E041FA02F3EE
:1005F000D040C2F12002914008431946704710B51F
:10060000141E73F1000408DA401C41F10001921835
:100610005B411A4301D120F0010010BD2DE9F04DDE
:1006200092469B4611B1B1FA81F202E0B0FA80F233
:1006300020329046FFF7B2FF04460F4640EA0A0018
:1006400041EA0B0153465A46084313D0114653EA78
:10065000010019D0C8F140025046FFF7AEFF054631
:100660000E46504659464246FFF798FF084305D0CC
:10067000012004E020463946BDE8F08D0020054306
:1006800046EAE0762C4337430A986305E40AA0EB78
:1006900008000022FD0A44EA47540A3002D500202F
:1006A0000146E9E7010510196941DDE9084500192E
:1006B0006941BDE8F04DA2E700BFFEE71CB500F0C0
:1006C00079F82021264800F012FB002847D100BF0E
:1006D0002021234800F00BFB0028F9D000BF202187
:1006E0001F4800F004FB0128F9D000F03DF88DF818
:1006F000000000F039F88DF8010000F035F88DF8B1
:10070000020000F031F88DF8030000F02DF88DF8AC
:1007100004002021124800F0F5FA0A2000F071F8D8
:100720009DF803009DF8021008449DF8011008444C
:100730009DF8001008449DF8041088420FD19DF8E0
:100740000400084908719DF80300C8709DF8020074
:1007500088709DF8010048709DF8000008701CBD6D
:10076000000801401400002070B500251CE000BF07
:1007700020210F4800F0BBFA0028F9D01E2000F01D
:1007800040F86006040E2021094800F0B0FA012864
:1007900001D144F0010400BF2021054800F0A7FA70
:1007A0000128F9D0681CC5B2082DE0DB204670BDD9
:1007B0000008014010B500F0B3FC2021094800F00A
:1007C000A1FA2021074800F09BFA142000F00DF850
:1007D0002021044800F096FA1E2000F012F800F0E4
:1007E00089FC10BD00080140704700B5034603E0D6
:1007F0004FF47A7000F005F8181EA3F10103F7D149
:1008000000BD00EBC001C9004FF0E02251610021A2
:1008100091610521116100BF4FF0E021096901F4E8
:1008200080310029F8D004214FF0E0221161704797
:1008300000B587B00121042000F098FC0121480494
:1008400000F084FC18208DF81B000420ADF818007F
:1008500003208DF81A0006A9214800F0BDF90420F4
:100860008DF81B000820ADF8180003208DF81A0041
:1008700006A91B4800F0B0F94FF4E13002900020C7
:10088000ADF814000C20ADF812000020ADF81000F7
:10089000ADF80E00ADF80C0002A9124800F076FE8B
:1008A0000121104800F033FE012240F225510D488D
:1008B00000F046FE26208DF8040001208DF8070088
:1008C0008DF805008DF8060001A800F045FA40F605
:1008D000B830FFF78AFF00F007F807B000BD00004E
:1008E000000801400044004010B544A1454800F014
:1008F000C4FE00BF44A146A000F0F8F80028F9D1DA
:1009000040F2DC50FFF771FF45A13E4800F0B5FE14
:1009100000BF45A145A000F0E9F80028F9D140F258
:10092000DC50FFF762FF43A1364800F0A6FE00BF8F
:100930003DA143A000F0DAF80028F9D140F2DC50E4
:10094000FFF753FF40A12F4800F097FE00BF36A1EC
:1009500040A000F0CBF80028F9D140F2DC50FFF7BE
:1009600044FF40A1274800F088FE00BF2EA140A010
:1009700000F0BCF80028F9D140F2DC50FFF735FF59
:100980003EA1204800F079FE00BF27A13EA000F064
:10099000ADF80028F9D140F2DC50FFF726FF43A163
:1009A000184800F06AFE00BF1FA1444800F09EF8FE
:1009B0000028F9D140F2DC50FFF717FF40A11148A1
:1009C00000F05BFE00BF18A1424800F08FF800283D
:1009D000F9D142F21070FFF708FF3FA1094800F07B
:1009E0004CFE00BF10A1404800F080F80028F9D16B
:1009F0004FF4FA70FFF7F9FE10BD00002052535477
:100A00000D0A000000380140726561647900000041
:100A100041542B524553544F52450D0A00000000DB
:100A2000312E41540D0A00004F4B000041540D0A75
:100A300000000000312E415445300D0A0000000036
:100A4000415445300D0A0000322E43574D4F444566
:100A50000D0A000041542B43574D4F44453D310D85
:100A60000A000000322E43575141500D0A00000089
:100A700041542B43575141500D0A0000332E435728
:100A80004A41500D0A00000041542B43574A41503F
:100A90003D227669766F53313065222C2231323314
:100AA0003435363738220D0A00000000342E4D51FF
:100AB0005454555345524346470D0A008C270008AD
:100AC000352E4D515454434C49454E5449440D0A1A
:100AD0000000000008280008362E4D515454434FA2
:100AE0004E4E0D0A00000000FC28000870B50446B8
:100AF0000D462046FFF73AFB86B2324621462C4887
:100B000000F0DFFD01E000F0B7FC2A480078002883
:100B1000F9D029462848FFF717FB002837D027A12E
:100B20002548FFF711FBF0B10220FFF75EFE23A17D
:100B30002148FFF709FB2349086008460068007A4E
:100B4000312805D1012211031F4800F0DDF80AE029
:100B50001C480068007A302805D100224FF48051EB
:100B6000194800F0D1F81449184800F086FD18A182
:100B7000164800F082FD0020164908804FF40071ED
:100B80000D48FFF7D6FA00200A49087070BD002012
:100B9000104908804FF400710748FFF7CAFA002097
:100BA000044908700A20FFF720FE0120EEE700004C
:100BB0000044004026000020340000207377697450
:100BC0006368000028000020000801400038014050
:100BD0000D0A0000240000202DE9F0410246002506
:100BE0000026002000230024002791F803C00CF009
:100BF0000F0591F803C00CF0100CBCF1000F03D0EE
:100C000091F802C04CEA050591F800C0BCF1000F54
:100C100031D0146800202BE04FF0010C0CFA00F3E7
:100C2000B1F800C00CEA03069E4220D183004FF0C9
:100C30000F0C0CFA03F7BC4305FA03FC4CEA04045E
:100C400091F803C0BCF1280F06D14FF0010C0CFA4B
:100C500000FCC2F814C00AE091F803C0BCF1480FD0
:100C600005D14FF0010C0CFA00FCC2F810C0401C7A
:100C70000828D1D31460B1F800C0BCF1FF0F34DDF7
:100C8000546800202EE000F1080C4FF0010808FA2B
:100C90000CF3B1F800C00CEA03069E4221D1830098
:100CA0004FF00F0C0CFA03F7BC4305FA03FC4CEAB7
:100CB000040491F803C0BCF1280F05D100F1080C21
:100CC00008FA0CF8C2F8148091F803C0BCF1480F80
:100CD00007D100F1080C4FF0010808FA0CF8C2F82F
:100CE0001080401C0828CED35460BDE8F081024635
:100CF000002093680B400BB1012000E000207047FA
:100D000041617047016170470AB1016100E04161D2
:100D1000704700BFFEE7000008B50121042000F085
:100D200025FA10208DF803000002ADF80000032022
:100D30008DF8020069460548FFF74EFF00224FF488
:100D400080510248FFF7E0FF08BD000000080140A5
:100D500000BFFEE77047000070B5002100230F229E
:100D6000C47804B3154C246804F4E064C4F5E0646A
:100D7000210AC1F10403CA40447804FA03F18478DB
:100D80001440214309010E4C0678A155047804F063
:100D90001F050124AC4005786D11AD0005F1E0257B
:100DA000C5F8004109E0047804F01F050124AC40B7
:100DB000044D0678761145F8264070BD0CED00E034
:100DC00000E400E080E100E002490143024A1160D2
:100DD000704700000000FA050CED00E070B500243B
:100DE0000EE00021204600F0E6F8002504E0002097
:100DF00000F050F9681CC5B2802DF8DB601CC4B24D
:100E0000082CEEDB70BD000008B50121082000F0C1
:100E1000ADF914208DF8030003208DF802004FF483
:100E20008070ADF8000069460A48FFF7D5FE4FF420
:100E30000070ADF8000069460648FFF7CDFE0122BC
:100E400011020448FFF760FF012251020148FFF739
:100E50005BFF08BD000C014070B50546002415E09D
:100E60008020204100EA05024FF400710E48FFF790
:100E70004BFF012211020C48FFF746FF00224FF4FE
:100E800080710948FFF740FF601CC4B2082CE7DB03
:100E9000012211020448FFF737FF00224FF480714E
:100EA0000148FFF731FF70BD000C014010B5012271
:100EB00051020A48FFF728FF012211020748FFF7F5
:100EC00023FF00224FF400710448FFF71DFF0022AA
:100ED0004FF480710148FFF717FF10BD000C01406F
:100EE00010B500224FF400710648FFF70DFF0122F4
:100EF00011020448FFF708FF012251020148FFF7E1
:100F000003FF10BD000C014070B5002406E0002571
:100F100000E06D1CB5F57A7FFBD3641CB4F57A7FD5
:100F2000F5D3FFF771FFAE2000F0A4F8D52000F054
:100F3000A1F8802000F09EF8A82000F09BF83F2048
:100F400000F098F8D32000F095F8002000F092F817
:100F5000402000F08FF8A12000F08CF8C82000F0AD
:100F600089F8DA2000F086F8122000F083F881205A
:100F700000F080F8CF2000F07DF8D92000F07AF85A
:100F8000F12000F077F8DB2000F074F8302000F05A
:100F900071F8A42000F06EF8A62000F06BF88D2008
:100FA00000F068F8142000F065F8AF2000F062F857
:100FB000FFF714FF70BD70B505460C4645F0B00054
:100FC00000F058F8102141EA141000F053F804F032
:100FD0000F0000F04FF870BD2DE9F04105460E46B8
:100FE0001746721ED206110E6A1E5206100EFFF729
:100FF000E2FF002409E0A7F12001134A02EB0111EE
:10100000085D00F047F8601CC4B2082CF3DB721EC8
:10101000D206110E6A1E012303EB4202D0B2FFF783
:10102000CAFF00240BE0A7F12001074A02EB0112DE
:1010300004F10801505C00F02DF8601CC4B2082CCB
:10104000F1DBBDE8F08100009C2100082DE9F041B2
:1010500007460E461546002407E02A5D3019C1B246
:101060003846FFF7B9FF601CC4B2285D0028F4D1F0
:10107000BDE8F08110B50446FFF718FF7820FFF7B0
:10108000EBFE0020FFF7E8FE2046FFF7E5FEFFF746
:1010900027FF10BD10B50446FFF708FF7820FFF7C3
:1010A000DBFE4020FFF7D8FE2046FFF7D5FEFFF716
:1010B00017FF10BD30B5ADF5017D04460D464FF468
:1010C000007101A8FFF735F82B462246064901A812
:1010D00000F00EFB00BF05A101A8FFF707FD0028E7
:1010E000F9D10DF5017D30BD702800084F4B00008F
:1010F0007047000008B50121042000F037F80420F3
:101100008DF803002020ADF8000003208DF80200C8
:1011100069460248FFF760FD08BD00000008014075
:1011200008B50121042000F021F810208DF80300FB
:101130002020ADF8000003208DF802006946024827
:10114000FFF74AFD08BD00000008014029B1064A2A
:10115000D2690243044BDA6104E0034AD269824354
:10116000014BDA61704700000010024029B1064AC5
:1011700092690243044B9A6104E0034A92698243F4
:10118000014B9A61704700000010024030B5002109
:101190000022002400232D4D6D6805F00C0121B1C3
:1011A000042905D0082923D105E0294D056022E056
:1011B000274D05601FE0254D6D6805F47012234D25
:1011C0006D6805F48034022505EB92421CB9214D6F
:1011D000554305600BE01D4D6D6805F400351DB1EC
:1011E0001C4D5543056002E0194D5543056002E072
:1011F000174D056000BF00BF144D6D6805F0F0018C
:101200000909154D6B5C0568DD4045600F4D6D6843
:1012100005F4E061090A104D6B5C4568DD408560AE
:101220000A4D6D6805F46051C90A0B4D6B5C456849
:10123000DD40C560054D6D6805F44041890B074DE3
:101240006B5CC568B5FBF3F5056130BD001002406D
:1012500000127A0000093D0000000020100000206C
:101260007047000000B585B001210420FFF77EFF24
:1012700018208DF813004FF40070ADF81000032013
:101280008DF8120004A91748FFF7A6FC48208DF836
:1012900013004FF48060ADF8100003208DF81200A9
:1012A00004A91048FFF798FC01218803FFF75EFFAF
:1012B0004AF2F87000900020ADF80C000C20ADF858
:1012C0000A000020ADF80800ADF80600ADF80400F3
:1012D0006946054800F05AF90121034800F017F962
:1012E00005B000BD000801400038014010B500F015
:1012F00001F810BD0CB50020019000903348006843
:1013000040F480303149086000BF3048006800F484
:10131000003000900198401C0190009818B9019885
:10132000B0F5A06FF1D12948006800F4003010B189
:101330000120009001E0002000900098012843D196
:101340002348006840F01000214908600846006802
:1013500020F0030008600846006840F002000860C2
:101360001A4840681949486008464068486008467D
:10137000406840F4806048600846406820F47C1073
:1013800048600846406840F4E81048600846006835
:1013900040F08070086000BF0C48006800F00070EA
:1013A0000028F9D00948406820F003000749486048
:1013B0000846406840F00200486000BF03484068AB
:1013C00000F00C000828F9D10CBD0000001002400C
:1013D000002002407047000010B51348006840F03C
:1013E00001001149086008464068104908400E494C
:1013F0004860084600680E4908400B4908600846E6
:10140000006820F4802008600846406820F4FE0050
:1014100048604FF41F008860FFF768FF4FF00060DE
:101420000449086010BD0000001002400000FFF8F1
:10143000FFFFF6FE08ED00E010B50121880700F07F
:101440000AF8012803D10121800700F001F810BD3E
:10145000CA430282704730B50246002000230024B0
:10146000158A05EA0103958905EA010413B10CB157
:10147000012000E0002030BD10B50848048801209C
:10148000FFF7B3F905480088844205D10520FFF72E
:10149000ACF901200249087010BD000024000020B2
:1014A0002600002010B52021114800F03CF801284A
:1014B0001CD110480088B0F5007F07DB00200D49E3
:1014C00008804FF400710C48FEF733FE084800F026
:1014D000C9F8C1B2074802880088401C054B188033
:1014E000054881542021024800F008F810BD000092
:1014F00000440040240000203400002001F4007269
:10150000B2F5007F00D100BFCA430280704721B10D
:10151000828942F40052828104E082894DF6FF7391
:101520001A408281704702460020B1F5007F00D149
:1015300000BF13880B400BB1012000E00020704772
:10154000F0B50346002400260025002040F66A1767
:10155000B94200D100BF1846C1F3421401F01F0682
:10156000012707FA06F5012C01D10C3004E0022C0A
:1015700001D1103000E014301AB107682F43076022
:1015800002E00768AF430760F0BD00002DE9F047B7
:1015900086B005460E460024A24600BFA14600279D
:1015A000B08900B100BF2F462C8A4CF6FF70044072
:1015B000F08804432C82AC894EF6F3100440B088C6
:1015C00031890843718908430443AC81AC8A4FF6E2
:1015D000FF400440B0890443AC8201A8FFF7D6FD68
:1015E0001F48874202D1DDF810A001E0DDF80CA011
:1015F000A88900F4004040B10AEBCA0000EB0A10D1
:1016000031684900B0FBF1F807E00AEBCA0000EBD3
:101610000A1031688900B0FBF1F86420B8FBF0F0E3
:1016200004012009642101FB1089A88900F400400D
:1016300040B1322000EBC900B0FBF1F000F0070030
:10164000044308E0322000EB09106421B0FBF1F004
:1016500000F00F0004432C8106B0BDE8F0870000C5
:101660000038014001468888C0F308007047C1F384
:1016700008028280704700BFFEE70FB430B5CBB0E0
:10168000054601AC50A800904FF4947101A8009B4E
:101690004F9A00F041F8002000900BE014F8011B75
:1016A0002846FFF7E4FF00BF40212846FFF73BFF35
:1016B0000028F9D020780028F0D14BB030BC5DF87C
:1016C00014FB70B506460C4600250CE0615D304603
:1016D000FFF7CDFF00BF80213046FFF724FF002831
:1016E000F9D0681CC5B2605D0028EFD170BD000064
:1016F0000FB4084B10B504A902AA039800F0F4F83F
:10170000044602A9002000F091FC204610BC5DF8C0
:1017100014FB00002D2000087CB5044600201D4667
:10172000164600290BD0491ECDE90041044B6A46FC
:101730002946304600F0D8F8009A002111707CBD8F
:101740001720000802E008C8121F08C1002AFAD1B9
:1017500070477047002001E001C1121F002AFBD131
:10176000704700002DE9FF5F82B00021DDE9043001
:10177000020DDDF840B0034318D044F61050A2F239
:10178000FF3242431514119801281FD0A5EB0B001E
:10179000401C5FEA000A4FF000064E4FDFF8389118
:1017A000B046504615D5CAF1000413E01198012443
:1017B0004AA3012801D16FEA0B010298119AC0E9EE
:1017C0000031C0E9024206B0BDE8F09FCBF1000055
:1017D000DFE704460021404A491842EB0450CDE9B6
:1017E000001012E0E00707D032463B46404649462B
:1017F000FEF7B1FD8046894632463B461046194603
:10180000FEF7A9FD06460F466410002CEAD1DDE97B
:101810000401DDE90023BAF1000F06DAFEF79BFDB3
:1018200042464B46FEF797FD05E0FEF706FE4246B0
:101830004B46FEF702FE04460E460022284BFEF7FA
:1018400083FE03D84FF0FF30014607E00022254B0E
:1018500020463146FEF7D8FCFEF75EFE102409E074
:10186000002C0ADB0A220023FEF79DFC039B30328A
:101870001A55641E50EA0102F2D1641C039AC4F1A5
:1018800011031444119A012A03D0012208430DD1F7
:101890000AE0084304D000204FF0110B119072E7CA
:1018A000A3EB0B056D1E0DE05B4504DD4FF0000260
:1018B00005F1010504E003DA4FF00002A5F101058E
:1018C000002AECD002981199C0E90231C0E9004524
:1018D00079E70000000014400000F03F30000000F5
:1018E0000000F0430000E03F2DE9FF4F95B09B461C
:1018F0008946064600250FE2252877D10024274691
:10190000F84A0121059400E0044316F8013F203B0A
:1019100001FA03F01042F7D130782A2811D06FF085
:101920002F033078A0F13002092A16D8059A44F026
:10193000020402EB820203EB42021044761C059083
:10194000EFE759F8042B0592002A03DA504244F4D9
:101950000054059044F00204761C30782E2816D1ED
:1019600016F8010F44F004042A280DD06FF02F025E
:101970003078A0F13003092B09D807EB870302EB7D
:101980004303C718761CF3E759F8047B761C3078BC
:101990006C280FD006DC4C2817D068280DD06A2898
:1019A00014D104E0742810D07A280FD10DE044F44B
:1019B00000140AE044F4801401E044F44014727806
:1019C000824202D104F58014761C761C3078662899
:1019D0000BD013DC582877D009DC002875D04528B7
:1019E000F6D04628F4D047281AD19DE118E06328A4
:1019F00035D0642879D0652812D195E1702873D04C
:101A000008DC6728F1D069286FD06E280DD06F28C8
:101A100006D1B5E073282CD0752875D0782874D0FD
:101A20005A46179990476D1C75E1C4F3025002287D
:101A300009D003280DD0D9F8001004280DD00D606E
:101A400009F1040967E1D9F80010EA17C1E9005269
:101A5000F6E7D9F800100D80F2E70D70F0E719F8FD
:101A6000041B8DF8001000208DF80100EA460120CB
:101A700003E059F804AB4FF0FF3061074FF000016D
:101A800002D40DE008F101018846B9420FDA804521
:101A9000F8DB1AF808100029F4D108E008F1010178
:101AA00088468142FADB1AF808100029F6D1059819
:101AB0005B46A0EB080721463846179A00F094FAD7
:101AC000284400EB080507E04DE029E10DE01AF895
:101AD000010B5A4617999047B8F10108F7D25B46B7
:101AE00021463846179A13E142E00A220092C4F3D5
:101AF00002524FF0000A022A08D059F804CB032AF8
:101B00004FEAEC710AD00DE029E02AE009F1070163
:101B100021F00702F2E802C1914609E00FFA8CFCBD
:101B20004FEAEC71042A03D14FFA8CFC4FEAEC71B6
:101B3000002907DA0A460021DCF1000C61EB020102
:101B40002D2202E0220504D52B228DF8042001224B
:101B500003E0E20701D02022F7E7904659E00A218E
:101B600002E010220DE010214FF0000A00910BE07E
:101B700010224FF0000A44F004040827009203E00A
:101B800008224FF0000A0092C4F30252022A05D044
:101B900059F804CB0021032A08D009E009F1070114
:101BA00021F00702F2E802C1914605E01FFA8CFC21
:101BB000042A01D10CF0FF0C4FF00008220728D5B1
:101BC000702806D0009B83F0100353EA0A0305D067
:101BD0000EE040228DF80420012208E05CEA0102B8
:101BE00006D030228DF804208DF8050002229046A0
:101BF000009B83F0080353EA0A030AD15CEA01025E
:101C000001D1620705D530228DF804204FF001087C
:101C10007F1E582804D034A003900EA802900DE037
:101C200036A0F9E753466046009AFEF7BCFA8446B0
:101C30000398825C0298401E029002705CEA0100E8
:101C4000F0D1029806A9081A00F1200A600702D50F
:101C500024F4803400E00127574502DDA7EB0A0099
:101C600000E0002000EB0A01009005984144401A72
:101C70000590E00306D45B462146179A059800F0CC
:101C8000B3F90544002706E001A85A46C05D17993C
:101C900090476D1C7F1C4745F6DBE0030CD55B4687
:101CA0002146179A059800F09FF9054404E030207A
:101CB0005A46179990476D1C0099481E00900029BC
:101CC000F5DC08E0029802995A460078491C029116
:101CD000179990476D1CBAF10001AAF1010AF1DCD5
:101CE00065E10000092801003031323334353637E0
:101CF0003839616263646566000000003031323358
:101D000034353637383941424344454600000000F7
:101D100000F058F90544761C307800287FF4ECADCB
:101D200019B02846BDE8F08F620700D4062709F1F4
:101D3000070222F0070CFCE80223E14603F000480A
:101D40005FEA080C02D00FF2702C0DE05FEA045C31
:101D500002D50FF2682C07E05FEAC47C02D00FF2D4
:101D6000602C01E0AFF2700C4FF0FF3823F000431D
:101D7000CDF850C065280CD006DC452809D046288F
:101D80001DD047283DD13DE0662818D067287ED178
:101D900038E00021112F01DB112000E0781CCDE993
:101DA000000106A90EA8FFF7DDFCDDE90F010E9A80
:101DB00003910021009207F1010A04914DE04FF0D8
:101DC00000400097CDE9011006A90EA8FFF7CAFC54
:101DD000DDE90F0203920E9B11990022DDF80CA0A1
:101DE0000093049211B9791C00EB010AB7EB0A00C9
:101DF00004D4C0F1FF3007F1010A0490AAEB0700F8
:101E0000019044E0012F00DA01270021112F01DDAC
:101E1000112000E03846CDE9000106A90EA8FFF721
:101E2000A1FCDDE90F010E9A0391002104910092BB
:101E3000BA4621070CD40399514500DA8A46BAF113
:101E4000010F05DD009AAAF10101515C302908D08B
:101E5000B84202DA10F1040F06DA0121CDE90110CF
:101E600015E0AAF10101E9E7002805DC0499014425
:101E70000491AAEB000102E0411C514500DD8A46B5
:101E80000499401A401C01904FF000400290200736
:101E900004D40198504501DBCDF8048000208DF872
:101EA0004F0002980DF14F07B0F1004F25D02B20C5
:101EB0000E9002984FF0020800280CDA404202907F
:101EC0002D200E9007E00A210298FEF756F93031D6
:101ED000029007F8011DB8F10001A8F10108F2DC39
:101EE00002980028EFD1791E0E980870307800F023
:101EF000200040F0450007F8020D12A8C01B00F1B9
:101F000007081498007800B1012000EB0A0101983D
:101F100001EBE07105984144401A401E0590E00332
:101F200006D45B462146179A059800F05DF80544F3
:101F30001498007818B15A46179990476D1CE00321
:101F400024D55B462146179A059800F04DF80544C4
:101F50001CE00498002807DBDDE90301884203DD6B
:101F60000098405C179901E0179930205A46904735
:101F7000049805F10105401C04900198401E019051
:101F800004D12E205A46179990476D1CBAF10001D2
:101F9000AAF1010ADDDC05E017F8010B5A46179992
:101FA00090476D1CB8F10001A8F10108F4DC5B4614
:101FB0002146179A0598ABE62D0000002B00000083
:101FC000200000002DE9F041044600251E4617467A
:101FD000880404D405E039462020B0476D1C641EF7
:101FE000F9D52846BDE8F0812DE9F04104460025E9
:101FF0001E469046C80301D5302700E020278804FC
:1020000004D505E041463846B0476D1C641EF9D53D
:102010002846BDE8F0814A68002A06D00A68531CA9
:102020000B6010704868401E486070470A68531C77
:102030000B601070704700001CB5FEF76DFE4FF48A
:10204000A060FEF7C1FEFEF75FFFFFF70BF9FEF79A
:10205000EFFB72E039480068401C384908600846C8
:102060000068374988422ED1FEF728FB3548C078F2
:1020700034498978CDE9001032484378027832A19A
:102080003748FFF7FAFA2F484378027835A13848E5
:10209000FFF72EFB364A01210846FEF7D7FF2948F5
:1020A000C378827833A13248FFF722FB304A0121FE
:1020B0000220FEF7CBFF234A91781078FEF7FAFF53
:1020C00000201E4908602EA12F48FEF73DF8002889
:1020D00033D00220FEF789FB29A12B48FEF734F804
:1020E0002A49086008460068007A312805D1012293
:1020F00011032748FEF708FE0AE024480068007A2A
:10210000302805D100224FF480512148FEF7FCFD14
:102110001D491348FFF7B1FA1EA11148FFF7ADFAA8
:1021200000201D4908804FF400711748FEF701F8A0
:102130001E2116480068FDF7FCFF8BE730000020E9
:10214000401901001400002048756D3A25642E25C1
:10215000642C54656D3A25642E25640D0A00000038
:102160000038014048756D3A25642E256400000052
:102170003402002054656D3A25642E256400000069
:102180007377697463680000340000202C0000201D
:10219000000801400D0A000024000020000000009B
:1021A000000000000000000000000000000000F837
:1021B00000000000000000333000000000100C069A
:1021C000100C0600000000000000000040C0784035
:1021D000C0784000043F04043F040400007088FC01
:1021E00008300000001820FF211E0000F008F00059
:1021F000E018000000211C031E211E0000F00888CA
:10220000700000001E2123241927211010160E0033
:10221000000000000000000000000000000000E0DE
:1022200018040200000000071820400000020418F3
:10223000E00000000040201807000000404080F04F
:10224000804040000202010F01020200000000F085
:10225000000000000101011F010101000000000059
:102260000000000080B070000000000000000000CE
:102270000000000000010101010101010000000057
:1022800000000000003030000000000000000000EE
:1022900080601804006018060100000000E01008CB
:1022A0000810E000000F102020100F00001010F8A0
:1022B000000000000020203F2020000000700808DF
:1022C000088870000030282422213000003008885F
:1022D000884830000018202020110E000000C02087
:1022E00010F8000000070424243F240000F80888A8
:1022F000880808000019212020110E0000E0108835
:1023000088180000000F112020110E000038080866
:10231000C83808000000003F000000000070880876
:1023200008887000001C222121221C0000E01008F7
:102330000810E0000000312222110F00000000C050
:10234000C0000000000000303000000000000080ED
:1023500000000000000080600000000000008040DD
:1023600020100800000102040810200040404040F6
:102370004040400004040404040404000008102049
:10238000408000000020100804020100007048088E
:102390000808F0000000003036010000C030C828F6
:1023A000E810E0000718272423140B000000C038B1
:1023B000E0000000203C23020227382008F888882B
:1023C00088700000203F202020110E00C030080837
:1023D00008083800071820202010080008F808080E
:1023E0000810E000203F202020100F0008F8888807
:1023F000E8081000203F20202320180008F88888D3
:10240000E8081000203F200003000000C03008084A
:102410000838000007182020221E020008F80800D3
:102420000008F808203F210101213F20000808F89A
:10243000080800000020203F2020000000000808BD
:10244000F8080800C08080807F00000008F888C07D
:1024500028180800203F20012638200008F808002E
:1024600000000000203F20202020300008F8F80065
:10247000F8F80800203F003F003F200008F830C077
:102480000008F808203F200007183F00E010080867
:102490000810E0000F10202020100F0008F8080896
:1024A0000808F000203F210101010000E0100808A9
:1024B0000810E0000F18242438504F0008F88888CE
:1024C00088887000203F2000030C302000708808AE
:1024D000080838000038202121221C00180808F8BC
:1024E000080818000000203F2000000008F808003D
:1024F0000008F808001F202020201F00087888000E
:1025000000C83808000007380E010000F80800F87D
:102510000008F800033C0700073C03000818688027
:102520008068180820302C03032C30200838C8009D
:10253000C83808000000203F2000000010080808EC
:10254000C83808002038262120201800000000FE8E
:10255000020202000000007F40404000000C30C03A
:1025600000000000000000010638C0000002020266
:10257000FE000000004040407F0000000000040218
:102580000202040000000000000000000000000043
:102590000000000080808080808080800002020433
:1025A000000000000000000000000000000080802B
:1025B000808000000019242222223F2008F8008099
:1025C00080000000003F112020110E00000000805C
:1025D00080800000000E11202020110000000080EB
:1025E0008088F800000E112020103F20000080801D
:1025F00080800000001F222222221300008080F031
:10260000888888180020203F20200000000080805B
:1026100080808000006B94949493600008F80080A0
:1026200080800000203F210000203F2000809898FB
:10263000000000000020203F20200000000000805B
:102640009898000000C08080807F000008F800009B
:1026500080808000203F24022D302000000808F8F0
:10266000000000000020203F2020000080808080AB
:1026700080808000203F20003F20003F808000803D
:1026800080800000203F210000203F20000080804B
:1026900080800000001F202020201F0080800080FC
:1026A0008000000080FFA12020110E0000000080AB
:1026B00080808000000E112020A0FF80808080009C
:1026C0008080800020203F212000010000008080C9
:1026D000808080000033242424241900008080E0BE
:1026E000808000000000001F20200000808000008B
:1026F00000808000001F202020103F20808080006C
:102700000080808000010E3008060100808000807B
:10271000008080800F300C030C300F0000808000A0
:10272000808080000020312E0E31200080808000CB
:102730000080808080818E7018060100008080807B
:10274000808080000021302C222130000000000019
:10275000807C020200000000003F404000000000BA
:10276000FF00000000000000FF0000000002027CEB
:10277000800000000040403F000000000006010112
:1027800002020404000000000000000041542B4D30
:10279000515454555345524346473D302C312C2219
:1027A0004E554C4C222C2244303031266B3063770E
:1027B0007A43734639474A222C2236343331613901
:1027C0003363316566333537396337353730313206
:1027D0006131646566666366353631343461663608
:1027E0003866386338356230643164373861666121
:1027F00066636530376664353536222C302C302CD4
:1028000022220D0A0000000041542B4D5154544324
:102810004C49454E5449443D302C226B3063777A05
:1028200043734639474A2E443030317C73656375B3
:1028300072656D6F64653D325C2C7369676E6D65A2
:1028400074686F643D686D61637368613235365CCE
:102850002C74696D657374616D703D31373131333E
:1028600037323831303533397C220D0A0000000010
:1028700041542B4D5154545055423D302C222F730E
:1028800079732F6B3063777A43734639474A2F4405
:102890003030312F7468696E672F6576656E742FDE
:1028A00070726F70657274792F706F7374222C223E
:1028B0007B5C22706172616D735C223A207B5C22CA
:1028C00043757272656E7448756D69646974795C7C
:1028D000223A25645C2C5C2243757272656E7454D6
:1028E000656D70657261747572655C223A25647DF0
:1028F0007D222C302C300D0A0000000041542B4D5D
:10290000515454434F4E4E3D302C22696F742D303C
:10291000367A3030686865616332353264322E6DE4
:102920007174742E696F746875622E616C69797543
:102930006E63732E636F6D222C313838332C310D5A
:102940000A000000696F742D30367A30306868658F
:10295000616332353264322E6D7174742E696F7416
:102960006875622E616C6979756E63732E636F6D25
:10297000000000002F7379732F6B3063777A4373F5
:102980004639474A2F443030312F7468696E672FBB
:102990006576656E742F70726F70657274792F70C2
:1029A0006F73745F7265706C79000000CC29000849
:1029B000000000203400000044170008002A00082E
:1029C0003400002024060000541700080000000016
:1029D00001020304010203040607080902040608B1
:1029E00000000000000000004429000874290008CD
:1029F00000000000000000000000000000000000D7
:0400000508000101ED
:00000001FF
